{
  "contractName": "Messages",
  "abi": [
    {
      "inputs": [
        {
          "internalType": "string",
          "name": "messageValue",
          "type": "string"
        }
      ],
      "name": "addMessage",
      "outputs": [],
      "stateMutability": "nonpayable",
      "type": "function"
    },
    {
      "inputs": [
        {
          "internalType": "uint256",
          "name": "messageIndex",
          "type": "uint256"
        },
        {
          "internalType": "string",
          "name": "newMessageValue",
          "type": "string"
        }
      ],
      "name": "updateMessage",
      "outputs": [
        {
          "internalType": "bool",
          "name": "",
          "type": "bool"
        }
      ],
      "stateMutability": "nonpayable",
      "type": "function"
    },
    {
      "inputs": [
        {
          "internalType": "uint256",
          "name": "messageIndex",
          "type": "uint256"
        }
      ],
      "name": "deleteMessage",
      "outputs": [
        {
          "internalType": "bool",
          "name": "",
          "type": "bool"
        }
      ],
      "stateMutability": "nonpayable",
      "type": "function"
    },
    {
      "inputs": [],
      "name": "getMessages",
      "outputs": [
        {
          "internalType": "string[]",
          "name": "",
          "type": "string[]"
        }
      ],
      "stateMutability": "view",
      "type": "function"
    }
  ],
  "bytecode": "0x608060405234801561001057600080fd5b50610aa9806100206000396000f3fe608060405234801561001057600080fd5b506004361061004c5760003560e01c80635ff6cbf3146100515780636a226a491461006f5780637f9493861461008b578063b888690a146100bb575b600080fd5b6100596100eb565b6040516100669190610609565b60405180910390f35b61008960048036038101906100849190610774565b6101c4565b005b6100a560048036038101906100a091906107f3565b610203565b6040516100b2919061086a565b60405180910390f35b6100d560048036038101906100d09190610885565b610259565b6040516100e2919061086a565b60405180910390f35b60606000805480602002602001604051908101604052809291908181526020016000905b828210156101bb57838290600052602060002001805461012e906108e1565b80601f016020809104026020016040519081016040528092919081815260200182805461015a906108e1565b80156101a75780601f1061017c576101008083540402835291602001916101a7565b820191906000526020600020905b81548152906001019060200180831161018a57829003601f168201915b50505050508152602001906001019061010f565b50505050905090565b6000819080600181540180825580915050600190039060005260206000200160009091909190915090805190602001906101ff92919061033e565b5050565b600082600080549050111561024e57816000848154811061022757610226610913565b5b90600052602060002001908051906020019061024492919061033e565b5060019050610253565b600090505b92915050565b60008160008054905011156103345760008290505b60016000805490506102809190610971565b8110156102fa57600060018261029691906109a5565b815481106102a7576102a6610913565b5b90600052602060002001600082815481106102c5576102c4610913565b5b906000526020600020019080546102db906108e1565b6102e69291906103c4565b5080806102f2906109fb565b91505061026e565b50600080548061030d5761030c610a44565b5b6001900381819060005260206000200160006103299190610451565b905560019050610339565b600090505b919050565b82805461034a906108e1565b90600052602060002090601f01602090048101928261036c57600085556103b3565b82601f1061038557805160ff19168380011785556103b3565b828001600101855582156103b3579182015b828111156103b2578251825591602001919060010190610397565b5b5090506103c09190610491565b5090565b8280546103d0906108e1565b90600052602060002090601f0160209004810192826103f25760008555610440565b82601f106104035780548555610440565b8280016001018555821561044057600052602060002091601f016020900482015b8281111561043f578254825591600101919060010190610424565b5b50905061044d9190610491565b5090565b50805461045d906108e1565b6000825580601f1061046f575061048e565b601f01602090049060005260206000209081019061048d9190610491565b5b50565b5b808211156104aa576000816000905550600101610492565b5090565b600081519050919050565b600082825260208201905092915050565b6000819050602082019050919050565b600081519050919050565b600082825260208201905092915050565b60005b838110156105145780820151818401526020810190506104f9565b83811115610523576000848401525b50505050565b6000601f19601f8301169050919050565b6000610545826104da565b61054f81856104e5565b935061055f8185602086016104f6565b61056881610529565b840191505092915050565b600061057f838361053a565b905092915050565b6000602082019050919050565b600061059f826104ae565b6105a981856104b9565b9350836020820285016105bb856104ca565b8060005b858110156105f757848403895281516105d88582610573565b94506105e383610587565b925060208a019950506001810190506105bf565b50829750879550505050505092915050565b600060208201905081810360008301526106238184610594565b905092915050565b6000604051905090565b600080fd5b600080fd5b600080fd5b600080fd5b7f4e487b7100000000000000000000000000000000000000000000000000000000600052604160045260246000fd5b61068182610529565b810181811067ffffffffffffffff821117156106a05761069f610649565b5b80604052505050565b60006106b361062b565b90506106bf8282610678565b919050565b600067ffffffffffffffff8211156106df576106de610649565b5b6106e882610529565b9050602081019050919050565b82818337600083830152505050565b6000610717610712846106c4565b6106a9565b90508281526020810184848401111561073357610732610644565b5b61073e8482856106f5565b509392505050565b600082601f83011261075b5761075a61063f565b5b813561076b848260208601610704565b91505092915050565b60006020828403121561078a57610789610635565b5b600082013567ffffffffffffffff8111156107a8576107a761063a565b5b6107b484828501610746565b91505092915050565b6000819050919050565b6107d0816107bd565b81146107db57600080fd5b50565b6000813590506107ed816107c7565b92915050565b6000806040838503121561080a57610809610635565b5b6000610818858286016107de565b925050602083013567ffffffffffffffff8111156108395761083861063a565b5b61084585828601610746565b9150509250929050565b60008115159050919050565b6108648161084f565b82525050565b600060208201905061087f600083018461085b565b92915050565b60006020828403121561089b5761089a610635565b5b60006108a9848285016107de565b91505092915050565b7f4e487b7100000000000000000000000000000000000000000000000000000000600052602260045260246000fd5b600060028204905060018216806108f957607f821691505b6020821081141561090d5761090c6108b2565b5b50919050565b7f4e487b7100000000000000000000000000000000000000000000000000000000600052603260045260246000fd5b7f4e487b7100000000000000000000000000000000000000000000000000000000600052601160045260246000fd5b600061097c826107bd565b9150610987836107bd565b92508282101561099a57610999610942565b5b828203905092915050565b60006109b0826107bd565b91506109bb836107bd565b9250827fffffffffffffffffffffffffffffffffffffffffffffffffffffffffffffffff038211156109f0576109ef610942565b5b828201905092915050565b6000610a06826107bd565b91507fffffffffffffffffffffffffffffffffffffffffffffffffffffffffffffffff821415610a3957610a38610942565b5b600182019050919050565b7f4e487b7100000000000000000000000000000000000000000000000000000000600052603160045260246000fdfea26469706673582212203fd5c858bed27781e1c028617608c2203d8c0bafcf149a236d644fe2a9b3684364736f6c634300080b0033",
  "immutableReferences": {},
  "source": "// SPDX-License-Identifier: MIT\npragma solidity 0.8.11;\n\ncontract Messages {\n  string[] myMessages;\n\n  function addMessage(string memory messageValue) public {\n      myMessages.push(messageValue);\n  }\n\n  function updateMessage(uint messageIndex, string memory newMessageValue) public returns (bool) {\n      if(myMessages.length > messageIndex){\n          myMessages[messageIndex] = newMessageValue;\n          return true;\n      }\n      return false;\n  }\n\n  function deleteMessage(uint messageIndex) public returns (bool) {\n      if(myMessages.length > messageIndex){\n          for(uint i=messageIndex; i < myMessages.length-1; i++){\n              myMessages[i] = myMessages[i+1];\n          }\n          myMessages.pop();\n          return true;\n      }\n      return false;\n  }\n\n  function getMessages() public view returns (string[] memory) {\n      return myMessages;\n  }\n}\n",
  "sourcePath": "/home/parallels/consensys/solidity-react-demo/contracts/Messages.sol",
  "compiler": {
    "name": "solc",
    "version": "0.8.11+commit.d7f03943.Emscripten.clang"
  },
  "schemaVersion": "3.4.4",
  "updatedAt": "2022-01-18T08:09:22.345Z",
  "devdoc": {
    "kind": "dev",
    "methods": {},
    "version": 1
  },
  "userdoc": {
    "kind": "user",
    "methods": {},
    "version": 1
  }
}